{
  "abi": [
    {
      "inputs": [
        {
          "internalType": "address",
          "name": "_owner",
          "type": "address"
        },
        {
          "internalType": "address",
          "name": "_rabbit",
          "type": "address"
        },
        {
          "internalType": "address",
          "name": "_paymentToken",
          "type": "address"
        }
      ],
      "stateMutability": "nonpayable",
      "type": "constructor"
    },
    {
      "anonymous": false,
      "inputs": [
        {
          "indexed": true,
          "internalType": "uint256",
          "name": "id",
          "type": "uint256"
        },
        {
          "indexed": true,
          "internalType": "address",
          "name": "trader",
          "type": "address"
        },
        {
          "indexed": false,
          "internalType": "uint256",
          "name": "amount",
          "type": "uint256"
        },
        {
          "indexed": true,
          "internalType": "uint256",
          "name": "poolId",
          "type": "uint256"
        }
      ],
      "name": "Deposit",
      "type": "event"
    },
    {
      "anonymous": false,
      "inputs": [
        {
          "indexed": true,
          "internalType": "uint256",
          "name": "id",
          "type": "uint256"
        },
        {
          "indexed": false,
          "internalType": "uint256",
          "name": "amount",
          "type": "uint256"
        }
      ],
      "name": "PooledDeposit",
      "type": "event"
    },
    {
      "anonymous": false,
      "inputs": [
        {
          "indexed": true,
          "internalType": "address",
          "name": "to",
          "type": "address"
        },
        {
          "indexed": false,
          "internalType": "uint256",
          "name": "amount",
          "type": "uint256"
        }
      ],
      "name": "WithdrawTo",
      "type": "event"
    },
    {
      "inputs": [
        {
          "internalType": "address",
          "name": "contributor",
          "type": "address"
        },
        {
          "internalType": "uint256",
          "name": "amount",
          "type": "uint256"
        }
      ],
      "name": "individualDeposit",
      "outputs": [],
      "stateMutability": "nonpayable",
      "type": "function"
    },
    {
      "inputs": [],
      "name": "owner",
      "outputs": [
        {
          "internalType": "address",
          "name": "",
          "type": "address"
        }
      ],
      "stateMutability": "view",
      "type": "function"
    },
    {
      "inputs": [],
      "name": "paymentToken",
      "outputs": [
        {
          "internalType": "contract IERC20",
          "name": "",
          "type": "address"
        }
      ],
      "stateMutability": "view",
      "type": "function"
    },
    {
      "inputs": [
        {
          "components": [
            {
              "internalType": "address",
              "name": "contributor",
              "type": "address"
            },
            {
              "internalType": "uint256",
              "name": "amount",
              "type": "uint256"
            }
          ],
          "internalType": "struct Contribution[]",
          "name": "contributions",
          "type": "tuple[]"
        }
      ],
      "name": "pooledDeposit",
      "outputs": [],
      "stateMutability": "nonpayable",
      "type": "function"
    },
    {
      "inputs": [],
      "name": "rabbit",
      "outputs": [
        {
          "internalType": "address",
          "name": "",
          "type": "address"
        }
      ],
      "stateMutability": "view",
      "type": "function"
    },
    {
      "inputs": [
        {
          "internalType": "address",
          "name": "_paymentToken",
          "type": "address"
        }
      ],
      "name": "setPaymentToken",
      "outputs": [],
      "stateMutability": "nonpayable",
      "type": "function"
    },
    {
      "inputs": [
        {
          "internalType": "address",
          "name": "_rabbit",
          "type": "address"
        }
      ],
      "name": "setRabbit",
      "outputs": [],
      "stateMutability": "nonpayable",
      "type": "function"
    },
    {
      "inputs": [
        {
          "internalType": "uint256",
          "name": "amount",
          "type": "uint256"
        },
        {
          "internalType": "address",
          "name": "to",
          "type": "address"
        }
      ],
      "name": "withdrawTokensTo",
      "outputs": [],
      "stateMutability": "nonpayable",
      "type": "function"
    }
  ],
  "bytecode": {
    "object": "0x60a0604052662386f26fc10000600255600160035534801561002057600080fd5b50604051610f34380380610f3483398101604081905261003f91610091565b6001600160a01b03928316608052600080549284166001600160a01b0319938416179055600180549190931691161790556100d4565b80516001600160a01b038116811461008c57600080fd5b919050565b6000806000606084860312156100a657600080fd5b6100af84610075565b92506100bd60208501610075565b91506100cb60408501610075565b90509250925092565b608051610e3061010460003960008181610123015281816104700152818161055601526107a60152610e306000f3fe608060405234801561001057600080fd5b50600436106100885760003560e01c80638da5cb5b1161005b5780638da5cb5b1461011e578063b743e72214610145578063bd18a99b14610158578063ee74567c1461016b57600080fd5b80633013ce291461008d57806357a7ce82146100d65780635b57f333146100eb5780636a326ab11461010b575b600080fd5b6001546100ad9073ffffffffffffffffffffffffffffffffffffffff1681565b60405173ffffffffffffffffffffffffffffffffffffffff909116815260200160405180910390f35b6100e96100e4366004610bea565b61017e565b005b6000546100ad9073ffffffffffffffffffffffffffffffffffffffff1681565b6100e9610119366004610c88565b610458565b6100ad7f000000000000000000000000000000000000000000000000000000000000000081565b6100e9610153366004610ca3565b61053e565b6100e9610166366004610c88565b61078e565b6100e9610179366004610ccf565b610874565b60006101886109d2565b90506000805b8381101561031d57368585838181106101a9576101a9610cf9565b6040029190910191505060208101356101c28185610d57565b935060008111610233576040517f08c379a000000000000000000000000000000000000000000000000000000000815260206004820152600c60248201527f57524f4e475f414d4f554e54000000000000000000000000000000000000000060448201526064015b60405180910390fd5b8084101561029d576040517f08c379a000000000000000000000000000000000000000000000000000000000815260206004820152601860248201527f494e544547524954595f4f564552464c4f575f4552524f520000000000000000604482015260640161022a565b60006102a76109ec565b9050856102b76020850185610c88565b73ffffffffffffffffffffffffffffffffffffffff16827fd36a2f67d06d285786f61a32b052b9ace6b0b7abef5177b54358abdc83a0b69b856040516102ff91815260200190565b60405180910390a4505050808061031590610d6a565b91505061018e565b5060008111610388576040517f08c379a000000000000000000000000000000000000000000000000000000000815260206004820152600c60248201527f57524f4e475f414d4f554e540000000000000000000000000000000000000000604482015260640161022a565b817f667ed75d7a503a5dc36e11fbc72336a5a2a2b95577a97ecd2aac380f1ac1b640826040516103ba91815260200190565b60405180910390a2600080546103e890339073ffffffffffffffffffffffffffffffffffffffff16846109fe565b905080610451576040517f08c379a000000000000000000000000000000000000000000000000000000000815260206004820152600f60248201527f5452414e534645525f4641494c45440000000000000000000000000000000000604482015260640161022a565b5050505050565b3373ffffffffffffffffffffffffffffffffffffffff7f000000000000000000000000000000000000000000000000000000000000000016146104f7576040517f08c379a000000000000000000000000000000000000000000000000000000000815260206004820152600a60248201527f4f4e4c595f4f574e455200000000000000000000000000000000000000000000604482015260640161022a565b600180547fffffffffffffffffffffffff00000000000000000000000000000000000000001673ffffffffffffffffffffffffffffffffffffffff92909216919091179055565b3373ffffffffffffffffffffffffffffffffffffffff7f000000000000000000000000000000000000000000000000000000000000000016146105dd576040517f08c379a000000000000000000000000000000000000000000000000000000000815260206004820152600a60248201527f4f4e4c595f4f574e455200000000000000000000000000000000000000000000604482015260640161022a565b60008211610647576040517f08c379a000000000000000000000000000000000000000000000000000000000815260206004820152600c60248201527f57524f4e475f414d4f554e540000000000000000000000000000000000000000604482015260640161022a565b73ffffffffffffffffffffffffffffffffffffffff81166106c4576040517f08c379a000000000000000000000000000000000000000000000000000000000815260206004820152600c60248201527f5a45524f5f414444524553530000000000000000000000000000000000000000604482015260640161022a565b60006106d08284610ae3565b905080610739576040517f08c379a000000000000000000000000000000000000000000000000000000000815260206004820152600f60248201527f5452414e534645525f4641494c45440000000000000000000000000000000000604482015260640161022a565b8173ffffffffffffffffffffffffffffffffffffffff167f47096d7b247e809edf18e9bccfcb92f2af426ce8e6b40c923e65cb1b8394cef78460405161078191815260200190565b60405180910390a2505050565b3373ffffffffffffffffffffffffffffffffffffffff7f0000000000000000000000000000000000000000000000000000000000000000161461082d576040517f08c379a000000000000000000000000000000000000000000000000000000000815260206004820152600a60248201527f4f4e4c595f4f574e455200000000000000000000000000000000000000000000604482015260640161022a565b600080547fffffffffffffffffffffffff00000000000000000000000000000000000000001673ffffffffffffffffffffffffffffffffffffffff92909216919091179055565b600081116108de576040517f08c379a000000000000000000000000000000000000000000000000000000000815260206004820152600c60248201527f57524f4e475f414d4f554e540000000000000000000000000000000000000000604482015260640161022a565b60006108e86109ec565b905060008373ffffffffffffffffffffffffffffffffffffffff16827fd36a2f67d06d285786f61a32b052b9ace6b0b7abef5177b54358abdc83a0b69b8560405161093591815260200190565b60405180910390a46000805461096390339073ffffffffffffffffffffffffffffffffffffffff16856109fe565b9050806109cc576040517f08c379a000000000000000000000000000000000000000000000000000000000815260206004820152600f60248201527f5452414e534645525f4641494c45440000000000000000000000000000000000604482015260640161022a565b50505050565b6003805490819060006109e483610d6a565b919050555090565b6002805490819060006109e483610d6a565b60405173ffffffffffffffffffffffffffffffffffffffff80851660248301528316604482015260648101829052600090610adb907f23b872dd00000000000000000000000000000000000000000000000000000000906084015b604080517fffffffffffffffffffffffffffffffffffffffffffffffffffffffffffffffe08184030181529190526020810180517bffffffffffffffffffffffffffffffffffffffffffffffffffffffff167fffffffff0000000000000000000000000000000000000000000000000000000090931692909217909152610b43565b949350505050565b60405173ffffffffffffffffffffffffffffffffffffffff8316602482015260448101829052600090610b3a907fa9059cbb0000000000000000000000000000000000000000000000000000000090606401610a59565b90505b92915050565b6001546040516000918291829173ffffffffffffffffffffffffffffffffffffffff1690610b72908690610da2565b6000604051808303816000865af19150503d8060008114610baf576040519150601f19603f3d011682016040523d82523d6000602084013e610bb4565b606091505b5091509150818015610bc7575060008151115b15610be35780806020019051810190610be09190610dd1565b91505b5092915050565b60008060208385031215610bfd57600080fd5b823567ffffffffffffffff80821115610c1557600080fd5b818501915085601f830112610c2957600080fd5b813581811115610c3857600080fd5b8660208260061b8501011115610c4d57600080fd5b60209290920196919550909350505050565b803573ffffffffffffffffffffffffffffffffffffffff81168114610c8357600080fd5b919050565b600060208284031215610c9a57600080fd5b610b3a82610c5f565b60008060408385031215610cb657600080fd5b82359150610cc660208401610c5f565b90509250929050565b60008060408385031215610ce257600080fd5b610ceb83610c5f565b946020939093013593505050565b7f4e487b7100000000000000000000000000000000000000000000000000000000600052603260045260246000fd5b7f4e487b7100000000000000000000000000000000000000000000000000000000600052601160045260246000fd5b80820180821115610b3d57610b3d610d28565b60007fffffffffffffffffffffffffffffffffffffffffffffffffffffffffffffffff8203610d9b57610d9b610d28565b5060010190565b6000825160005b81811015610dc35760208186018101518583015201610da9565b506000920191825250919050565b600060208284031215610de357600080fd5b81518015158114610df357600080fd5b939250505056fea26469706673582212200ccf1c69c81d05e9965730b77c945315346399ae9087aa87f672b73d329b839a64736f6c63430008150033",
    "linkReferences": {}
  },
  "methodIdentifiers": {
    "individualDeposit(address,uint256)": "ee74567c",
    "owner()": "8da5cb5b",
    "paymentToken()": "3013ce29",
    "pooledDeposit((address,uint256)[])": "57a7ce82",
    "rabbit()": "5b57f333",
    "setPaymentToken(address)": "6a326ab1",
    "setRabbit(address)": "bd18a99b",
    "withdrawTokensTo(uint256,address)": "b743e722"
  },
  "id": 30
}