{
  "abi": [
    {
      "inputs": [
        {
          "internalType": "address",
          "name": "contractAddress",
          "type": "address"
        },
        {
          "internalType": "string",
          "name": "domainName",
          "type": "string"
        },
        {
          "internalType": "string",
          "name": "version",
          "type": "string"
        }
      ],
      "stateMutability": "nonpayable",
      "type": "constructor"
    },
    {
      "inputs": [
        {
          "components": [
            {
              "internalType": "uint256",
              "name": "id",
              "type": "uint256"
            },
            {
              "internalType": "address",
              "name": "trader",
              "type": "address"
            },
            {
              "internalType": "uint256",
              "name": "amount",
              "type": "uint256"
            }
          ],
          "internalType": "struct SigUtils.Withdrawal",
          "name": "_withdrawal",
          "type": "tuple"
        }
      ],
      "name": "getTypedDataHash",
      "outputs": [
        {
          "internalType": "bytes32",
          "name": "",
          "type": "bytes32"
        }
      ],
      "stateMutability": "view",
      "type": "function"
    }
  ],
  "bytecode": {
    "object": "0x60a060405234801561001057600080fd5b5060405161042b38038061042b83398101604081905261002f9161016e565b8151602080840191909120825183830120604080517f8b73c3c69bb8fe3d512ecc4cf759cc79239f7b179b0ffacaa9a75d522b39400f9481019490945283019190915260608201524660808201526001600160a01b03841660a082015260c00160408051601f198184030181529190528051602090910120608052506101f0915050565b634e487b7160e01b600052604160045260246000fd5b600082601f8301126100da57600080fd5b81516001600160401b03808211156100f4576100f46100b3565b604051601f8301601f19908116603f0116810190828211818310171561011c5761011c6100b3565b8160405283815260209250868385880101111561013857600080fd5b600091505b8382101561015a578582018301518183018401529082019061013d565b600093810190920192909252949350505050565b60008060006060848603121561018357600080fd5b83516001600160a01b038116811461019a57600080fd5b60208501519093506001600160401b03808211156101b757600080fd5b6101c3878388016100c9565b935060408601519150808211156101d957600080fd5b506101e6868287016100c9565b9150509250925092565b60805161022161020a6000396000605901526102216000f3fe608060405234801561001057600080fd5b506004361061002b5760003560e01c8063781797e614610030575b600080fd5b61004361003e366004610149565b610055565b60405190815260200160405180910390f35b60007f0000000000000000000000000000000000000000000000000000000000000000610081836100d8565b6040517f19010000000000000000000000000000000000000000000000000000000000006020820152602281019290925260428201526062015b604051602081830303815290604052805190602001209050919050565b60007fec976281d6462ad970e7a9251148e624b8aa376c6857d4245700b1b711bb08848260000151836020015184604001516040516020016100bb9493929190938452602084019290925273ffffffffffffffffffffffffffffffffffffffff166040830152606082015260800190565b60006060828403121561015b57600080fd5b6040516060810181811067ffffffffffffffff821117156101a5577f4e487b7100000000000000000000000000000000000000000000000000000000600052604160045260246000fd5b60405282358152602083013573ffffffffffffffffffffffffffffffffffffffff811681146101d357600080fd5b6020820152604092830135928101929092525091905056fea26469706673582212208c2183496dd3155297cc4f47599436af50c6430ab22dc2ddb15b8deb996e997e64736f6c63430008150033",
    "linkReferences": {}
  },
  "methodIdentifiers": {
    "getTypedDataHash((uint256,address,uint256))": "781797e6"
  },
  "id": 34
}