{
  "abi": [
    {
      "inputs": [
        {
          "internalType": "address",
          "name": "_owner",
          "type": "address"
        },
        {
          "internalType": "address",
          "name": "_signer",
          "type": "address"
        },
        {
          "internalType": "address",
          "name": "_paymentToken",
          "type": "address"
        }
      ],
      "stateMutability": "nonpayable",
      "type": "constructor"
    },
    {
      "anonymous": false,
      "inputs": [
        {
          "indexed": true,
          "internalType": "uint256",
          "name": "id",
          "type": "uint256"
        },
        {
          "indexed": true,
          "internalType": "address",
          "name": "trader",
          "type": "address"
        },
        {
          "indexed": false,
          "internalType": "uint256",
          "name": "amount",
          "type": "uint256"
        }
      ],
      "name": "Deposit",
      "type": "event"
    },
    {
      "anonymous": false,
      "inputs": [
        {
          "indexed": true,
          "internalType": "uint256",
          "name": "fromAddress",
          "type": "uint256"
        },
        {
          "indexed": false,
          "internalType": "uint256[]",
          "name": "payload",
          "type": "uint256[]"
        }
      ],
      "name": "MsgNotFound",
      "type": "event"
    },
    {
      "anonymous": false,
      "inputs": [
        {
          "indexed": true,
          "internalType": "uint256",
          "name": "messageType",
          "type": "uint256"
        },
        {
          "indexed": false,
          "internalType": "uint256[]",
          "name": "payload",
          "type": "uint256[]"
        }
      ],
      "name": "UnknownReceipt",
      "type": "event"
    },
    {
      "anonymous": false,
      "inputs": [
        {
          "indexed": true,
          "internalType": "address",
          "name": "trader",
          "type": "address"
        },
        {
          "indexed": false,
          "internalType": "uint256",
          "name": "amount",
          "type": "uint256"
        }
      ],
      "name": "Withdraw",
      "type": "event"
    },
    {
      "anonymous": false,
      "inputs": [
        {
          "indexed": true,
          "internalType": "address",
          "name": "to",
          "type": "address"
        },
        {
          "indexed": false,
          "internalType": "uint256",
          "name": "amount",
          "type": "uint256"
        }
      ],
      "name": "WithdrawTo",
      "type": "event"
    },
    {
      "anonymous": false,
      "inputs": [
        {
          "indexed": true,
          "internalType": "uint256",
          "name": "id",
          "type": "uint256"
        },
        {
          "indexed": true,
          "internalType": "address",
          "name": "trader",
          "type": "address"
        },
        {
          "indexed": false,
          "internalType": "uint256",
          "name": "amount",
          "type": "uint256"
        }
      ],
      "name": "WithdrawalReceipt",
      "type": "event"
    },
    {
      "inputs": [
        {
          "internalType": "address",
          "name": "new_signer",
          "type": "address"
        }
      ],
      "name": "changeSigner",
      "outputs": [],
      "stateMutability": "nonpayable",
      "type": "function"
    },
    {
      "inputs": [
        {
          "internalType": "uint256",
          "name": "amount",
          "type": "uint256"
        }
      ],
      "name": "deposit",
      "outputs": [],
      "stateMutability": "nonpayable",
      "type": "function"
    },
    {
      "inputs": [],
      "name": "external_signer",
      "outputs": [
        {
          "internalType": "address",
          "name": "",
          "type": "address"
        }
      ],
      "stateMutability": "view",
      "type": "function"
    },
    {
      "inputs": [],
      "name": "owner",
      "outputs": [
        {
          "internalType": "address",
          "name": "",
          "type": "address"
        }
      ],
      "stateMutability": "view",
      "type": "function"
    },
    {
      "inputs": [],
      "name": "paymentToken",
      "outputs": [
        {
          "internalType": "contract IERC20",
          "name": "",
          "type": "address"
        }
      ],
      "stateMutability": "view",
      "type": "function"
    },
    {
      "inputs": [
        {
          "internalType": "uint256",
          "name": "",
          "type": "uint256"
        }
      ],
      "name": "processedWithdrawals",
      "outputs": [
        {
          "internalType": "bool",
          "name": "",
          "type": "bool"
        }
      ],
      "stateMutability": "view",
      "type": "function"
    },
    {
      "inputs": [
        {
          "internalType": "address",
          "name": "_paymentToken",
          "type": "address"
        }
      ],
      "name": "setPaymentToken",
      "outputs": [],
      "stateMutability": "nonpayable",
      "type": "function"
    },
    {
      "inputs": [
        {
          "internalType": "uint256",
          "name": "id",
          "type": "uint256"
        },
        {
          "internalType": "address",
          "name": "trader",
          "type": "address"
        },
        {
          "internalType": "uint256",
          "name": "amount",
          "type": "uint256"
        },
        {
          "internalType": "uint8",
          "name": "v",
          "type": "uint8"
        },
        {
          "internalType": "bytes32",
          "name": "r",
          "type": "bytes32"
        },
        {
          "internalType": "bytes32",
          "name": "s",
          "type": "bytes32"
        }
      ],
      "name": "withdraw",
      "outputs": [],
      "stateMutability": "nonpayable",
      "type": "function"
    },
    {
      "inputs": [
        {
          "internalType": "uint256",
          "name": "amount",
          "type": "uint256"
        },
        {
          "internalType": "address",
          "name": "to",
          "type": "address"
        }
      ],
      "name": "withdrawTokensTo",
      "outputs": [],
      "stateMutability": "nonpayable",
      "type": "function"
    }
  ],
  "bytecode": {
    "object": "0x610160604052619088600355600160045534801561001c57600080fd5b506040516200143f3803806200143f83398101604081905261003d916101c8565b604080518082018252600d81526c10999e15da5d1a191c985dd85b609a1b60208083019182528351808501855260018152603160f81b81830152835190922060e08190527fc89efdaa54c0f20c7adf612882df0950f5a951637e0307cdcb4c672f298b8bc66101008190524660a081815287517f8b73c3c69bb8fe3d512ecc4cf759cc79239f7b179b0ffacaa9a75d522b39400f818701819052818a01959095526060810193909352608080840192909252308382018190528851808503909201825260c0938401909852805194019390932090925293905261012092909252600080546001600160a01b0319166001600160a01b038616908117909155909190849061017e5760405162461bcd60e51b815260206004820152600b60248201526a2d22a927afa9a4a3a722a960a91b604482015260640160405180910390fd5b5050506001600160a01b0392831661014052600180546001600160a01b03191691909316179091555061020b565b80516001600160a01b03811681146101c357600080fd5b919050565b6000806000606084860312156101dd57600080fd5b6101e6846101ac565b92506101f4602085016101ac565b9150610202604085016101ac565b90509250925092565b60805160a05160c05160e0516101005161012051610140516111c46200027b6000396000818161013e015281816105370152818161061d01526108ce01526000610eb101526000610f0001526000610edb01526000610e3401526000610e5e01526000610e8801526111c46000f3fe608060405234801561001057600080fd5b50600436106100a25760003560e01c80638da5cb5b11610076578063b6b55f251161005b578063b6b55f2514610173578063b743e72214610186578063dde4d9501461019957600080fd5b80638da5cb5b14610139578063aad2b7231461016057600080fd5b806208cecb146100a75780633013ce29146100f157806361c8e739146101115780636a326ab114610126575b600080fd5b6000546100c79073ffffffffffffffffffffffffffffffffffffffff1681565b60405173ffffffffffffffffffffffffffffffffffffffff90911681526020015b60405180910390f35b6001546100c79073ffffffffffffffffffffffffffffffffffffffff1681565b61012461011f36600461101e565b6101cc565b005b61012461013436600461107e565b61051f565b6100c77f000000000000000000000000000000000000000000000000000000000000000081565b61012461016e36600461107e565b610605565b610124610181366004611099565b610768565b6101246101943660046110b2565b6108b6565b6101bc6101a7366004611099565b60026020526000908152604090205460ff1681565b60405190151581526020016100e8565b60016004541461023d576040517f08c379a000000000000000000000000000000000000000000000000000000000815260206004820152600a60248201527f4e4f5f5245454e5452590000000000000000000000000000000000000000000060448201526064015b60405180910390fd5b6002600455836102a9576040517f08c379a000000000000000000000000000000000000000000000000000000000815260206004820152600c60248201527f57524f4e475f414d4f554e5400000000000000000000000000000000000000006044820152606401610234565b60008681526002602052604090205460ff1615610322576040517f08c379a000000000000000000000000000000000000000000000000000000000815260206004820152601160248201527f414c52454144595f50524f4345535345440000000000000000000000000000006044820152606401610234565b600086815260026020908152604080832080547fffffffffffffffffffffffffffffffffffffffffffffffffffffffffffffff0016600117905580517fec976281d6462ad970e7a9251148e624b8aa376c6857d4245700b1b711bb088492810192909252810188905273ffffffffffffffffffffffffffffffffffffffff87166060820152608081018690526103d09060a00160405160208183030381529060405280519060200120610b06565b905060006103e082868686610b75565b905080610449576040517f08c379a000000000000000000000000000000000000000000000000000000000815260206004820152601160248201527f494e56414c49445f5349474e41545552450000000000000000000000000000006044820152606401610234565b8673ffffffffffffffffffffffffffffffffffffffff16887f64ef09c96beca083de3bd312078bd3b09203dfe40a2923e4704ac55dda16c67d8860405161049291815260200190565b60405180910390a360006104a68888610cc5565b90508061050f576040517f08c379a000000000000000000000000000000000000000000000000000000000815260206004820152600f60248201527f5452414e534645525f4641494c454400000000000000000000000000000000006044820152606401610234565b5050600160045550505050505050565b3373ffffffffffffffffffffffffffffffffffffffff7f000000000000000000000000000000000000000000000000000000000000000016146105be576040517f08c379a000000000000000000000000000000000000000000000000000000000815260206004820152600a60248201527f4f4e4c595f4f574e4552000000000000000000000000000000000000000000006044820152606401610234565b600180547fffffffffffffffffffffffff00000000000000000000000000000000000000001673ffffffffffffffffffffffffffffffffffffffff92909216919091179055565b3373ffffffffffffffffffffffffffffffffffffffff7f000000000000000000000000000000000000000000000000000000000000000016146106a4576040517f08c379a000000000000000000000000000000000000000000000000000000000815260206004820152600a60248201527f4f4e4c595f4f574e4552000000000000000000000000000000000000000000006044820152606401610234565b73ffffffffffffffffffffffffffffffffffffffff8116610721576040517f08c379a000000000000000000000000000000000000000000000000000000000815260206004820152600b60248201527f5a45524f5f5349474e45520000000000000000000000000000000000000000006044820152606401610234565b600080547fffffffffffffffffffffffff00000000000000000000000000000000000000001673ffffffffffffffffffffffffffffffffffffffff92909216919091179055565b6001600454146107d4576040517f08c379a000000000000000000000000000000000000000000000000000000000815260206004820152600a60248201527f4e4f5f5245454e545259000000000000000000000000000000000000000000006044820152606401610234565b600260045560006107e6333084610da1565b90508061084f576040517f08c379a000000000000000000000000000000000000000000000000000000000815260206004820152600f60248201527f5452414e534645525f4641494c454400000000000000000000000000000000006044820152606401610234565b6000610859610e00565b90503373ffffffffffffffffffffffffffffffffffffffff16817feaa18152488ce5959073c9c79c88ca90b3d96c00de1f118cfaad664c3dab06b9856040516108a491815260200190565b60405180910390a35050600160045550565b3373ffffffffffffffffffffffffffffffffffffffff7f00000000000000000000000000000000000000000000000000000000000000001614610955576040517f08c379a000000000000000000000000000000000000000000000000000000000815260206004820152600a60248201527f4f4e4c595f4f574e4552000000000000000000000000000000000000000000006044820152606401610234565b600082116109bf576040517f08c379a000000000000000000000000000000000000000000000000000000000815260206004820152600c60248201527f57524f4e475f414d4f554e5400000000000000000000000000000000000000006044820152606401610234565b73ffffffffffffffffffffffffffffffffffffffff8116610a3c576040517f08c379a000000000000000000000000000000000000000000000000000000000815260206004820152600c60248201527f5a45524f5f4144445245535300000000000000000000000000000000000000006044820152606401610234565b6000610a488284610cc5565b905080610ab1576040517f08c379a000000000000000000000000000000000000000000000000000000000815260206004820152600f60248201527f5452414e534645525f4641494c454400000000000000000000000000000000006044820152606401610234565b8173ffffffffffffffffffffffffffffffffffffffff167f47096d7b247e809edf18e9bccfcb92f2af426ce8e6b40c923e65cb1b8394cef784604051610af991815260200190565b60405180910390a2505050565b6000610b6f610b13610e1a565b836040517f19010000000000000000000000000000000000000000000000000000000000006020820152602281018390526042810182905260009060620160405160208183030381529060405280519060200120905092915050565b92915050565b6040805160008082526020820180845287905260ff8616928201929092526060810184905260808101839052819060019060a0016020604051602081039080840390855afa158015610bcb573d6000803e3d6000fd5b50506040517fffffffffffffffffffffffffffffffffffffffffffffffffffffffffffffffe0015160005490925073ffffffffffffffffffffffffffffffffffffffff8084169116149050610c8b57601b60ff86168103610c2a5750601c5b60408051600081526020810180835289905260ff831691810191909152606081018690526080810185905260019060a0016020604051602081039080840390855afa158015610c7d573d6000803e3d6000fd5b505050602060405103519150505b60005473ffffffffffffffffffffffffffffffffffffffff828116911614610cb7576000915050610cbd565b60019150505b949350505050565b60405173ffffffffffffffffffffffffffffffffffffffff8316602482015260448101829052600090610d9a907fa9059cbb00000000000000000000000000000000000000000000000000000000906064015b604080517fffffffffffffffffffffffffffffffffffffffffffffffffffffffffffffffe08184030181529190526020810180517bffffffffffffffffffffffffffffffffffffffffffffffffffffffff167fffffffff0000000000000000000000000000000000000000000000000000000090931692909217909152610f4e565b9392505050565b60405173ffffffffffffffffffffffffffffffffffffffff80851660248301528316604482015260648101829052600090610cbd907f23b872dd0000000000000000000000000000000000000000000000000000000090608401610d18565b600380549081906000610e12836110de565b919050555090565b60003073ffffffffffffffffffffffffffffffffffffffff7f000000000000000000000000000000000000000000000000000000000000000016148015610e8057507f000000000000000000000000000000000000000000000000000000000000000046145b15610eaa57507f000000000000000000000000000000000000000000000000000000000000000090565b50604080517f00000000000000000000000000000000000000000000000000000000000000006020808301919091527f0000000000000000000000000000000000000000000000000000000000000000828401527f000000000000000000000000000000000000000000000000000000000000000060608301524660808301523060a0808401919091528351808403909101815260c0909201909252805191012090565b6001546040516000918291829173ffffffffffffffffffffffffffffffffffffffff1690610f7d90869061113d565b6000604051808303816000865af19150503d8060008114610fba576040519150601f19603f3d011682016040523d82523d6000602084013e610fbf565b606091505b5091509150818015610fd2575060008151115b15610fee5780806020019051810190610feb919061116c565b91505b5092915050565b803573ffffffffffffffffffffffffffffffffffffffff8116811461101957600080fd5b919050565b60008060008060008060c0878903121561103757600080fd5b8635955061104760208801610ff5565b945060408701359350606087013560ff8116811461106457600080fd5b9598949750929560808101359460a0909101359350915050565b60006020828403121561109057600080fd5b610d9a82610ff5565b6000602082840312156110ab57600080fd5b5035919050565b600080604083850312156110c557600080fd5b823591506110d560208401610ff5565b90509250929050565b60007fffffffffffffffffffffffffffffffffffffffffffffffffffffffffffffffff8203611136577f4e487b7100000000000000000000000000000000000000000000000000000000600052601160045260246000fd5b5060010190565b6000825160005b8181101561115e5760208186018101518583015201611144565b506000920191825250919050565b60006020828403121561117e57600080fd5b81518015158114610d9a57600080fdfea2646970667358221220252359d2d3b624e9c16d1f14ddac8f3a375b2df5ad16ea235f185fc1fe8c3c4f64736f6c63430008150033",
    "linkReferences": {}
  },
  "methodIdentifiers": {
    "changeSigner(address)": "aad2b723",
    "deposit(uint256)": "b6b55f25",
    "external_signer()": "0008cecb",
    "owner()": "8da5cb5b",
    "paymentToken()": "3013ce29",
    "processedWithdrawals(uint256)": "dde4d950",
    "setPaymentToken(address)": "6a326ab1",
    "withdraw(uint256,address,uint256,uint8,bytes32,bytes32)": "61c8e739",
    "withdrawTokensTo(uint256,address)": "b743e722"
  },
  "id": 25
}