{
  "abi": [
    {
      "inputs": [
        {
          "internalType": "address",
          "name": "_owner",
          "type": "address"
        },
        {
          "internalType": "address",
          "name": "_bfx",
          "type": "address"
        },
        {
          "internalType": "address",
          "name": "_paymentToken",
          "type": "address"
        }
      ],
      "stateMutability": "nonpayable",
      "type": "constructor"
    },
    {
      "anonymous": false,
      "inputs": [
        {
          "indexed": true,
          "internalType": "address",
          "name": "user",
          "type": "address"
        },
        {
          "indexed": true,
          "internalType": "uint256",
          "name": "role",
          "type": "uint256"
        }
      ],
      "name": "AddRole",
      "type": "event"
    },
    {
      "anonymous": false,
      "inputs": [
        {
          "indexed": true,
          "internalType": "address",
          "name": "user",
          "type": "address"
        },
        {
          "indexed": true,
          "internalType": "uint256",
          "name": "role",
          "type": "uint256"
        }
      ],
      "name": "RemoveRole",
      "type": "event"
    },
    {
      "anonymous": false,
      "inputs": [
        {
          "indexed": true,
          "internalType": "uint256",
          "name": "id",
          "type": "uint256"
        },
        {
          "indexed": true,
          "internalType": "address",
          "name": "trader",
          "type": "address"
        },
        {
          "indexed": false,
          "internalType": "uint256",
          "name": "amount",
          "type": "uint256"
        }
      ],
      "name": "Stake",
      "type": "event"
    },
    {
      "anonymous": false,
      "inputs": [
        {
          "indexed": true,
          "internalType": "uint256",
          "name": "id",
          "type": "uint256"
        },
        {
          "indexed": true,
          "internalType": "address",
          "name": "trader",
          "type": "address"
        },
        {
          "indexed": false,
          "internalType": "uint256",
          "name": "shares",
          "type": "uint256"
        },
        {
          "indexed": false,
          "internalType": "uint256",
          "name": "value",
          "type": "uint256"
        }
      ],
      "name": "Unstake",
      "type": "event"
    },
    {
      "anonymous": false,
      "inputs": [
        {
          "indexed": true,
          "internalType": "address",
          "name": "to",
          "type": "address"
        },
        {
          "indexed": false,
          "internalType": "uint256",
          "name": "amount",
          "type": "uint256"
        }
      ],
      "name": "WithdrawTo",
      "type": "event"
    },
    {
      "inputs": [],
      "name": "ADMIN_ROLE",
      "outputs": [
        {
          "internalType": "uint256",
          "name": "",
          "type": "uint256"
        }
      ],
      "stateMutability": "view",
      "type": "function"
    },
    {
      "inputs": [],
      "name": "TRADER_ROLE",
      "outputs": [
        {
          "internalType": "uint256",
          "name": "",
          "type": "uint256"
        }
      ],
      "stateMutability": "view",
      "type": "function"
    },
    {
      "inputs": [],
      "name": "TREASURER_ROLE",
      "outputs": [
        {
          "internalType": "uint256",
          "name": "",
          "type": "uint256"
        }
      ],
      "stateMutability": "view",
      "type": "function"
    },
    {
      "inputs": [
        {
          "internalType": "address",
          "name": "user",
          "type": "address"
        }
      ],
      "name": "addAdmin",
      "outputs": [],
      "stateMutability": "nonpayable",
      "type": "function"
    },
    {
      "inputs": [
        {
          "internalType": "address",
          "name": "signer",
          "type": "address"
        },
        {
          "internalType": "uint256",
          "name": "role",
          "type": "uint256"
        }
      ],
      "name": "addRole",
      "outputs": [],
      "stateMutability": "nonpayable",
      "type": "function"
    },
    {
      "inputs": [
        {
          "internalType": "address",
          "name": "user",
          "type": "address"
        }
      ],
      "name": "addTrader",
      "outputs": [],
      "stateMutability": "nonpayable",
      "type": "function"
    },
    {
      "inputs": [
        {
          "internalType": "address",
          "name": "user",
          "type": "address"
        }
      ],
      "name": "addTreasurer",
      "outputs": [],
      "stateMutability": "nonpayable",
      "type": "function"
    },
    {
      "inputs": [],
      "name": "bfx",
      "outputs": [
        {
          "internalType": "contract IBfx",
          "name": "",
          "type": "address"
        }
      ],
      "stateMutability": "view",
      "type": "function"
    },
    {
      "inputs": [
        {
          "internalType": "address",
          "name": "user",
          "type": "address"
        }
      ],
      "name": "isAdmin",
      "outputs": [
        {
          "internalType": "bool",
          "name": "",
          "type": "bool"
        }
      ],
      "stateMutability": "view",
      "type": "function"
    },
    {
      "inputs": [
        {
          "internalType": "address",
          "name": "user",
          "type": "address"
        }
      ],
      "name": "isTrader",
      "outputs": [
        {
          "internalType": "bool",
          "name": "",
          "type": "bool"
        }
      ],
      "stateMutability": "view",
      "type": "function"
    },
    {
      "inputs": [
        {
          "internalType": "address",
          "name": "user",
          "type": "address"
        }
      ],
      "name": "isTreasurer",
      "outputs": [
        {
          "internalType": "bool",
          "name": "",
          "type": "bool"
        }
      ],
      "stateMutability": "view",
      "type": "function"
    },
    {
      "inputs": [
        {
          "internalType": "address",
          "name": "signer",
          "type": "address"
        },
        {
          "internalType": "uint256",
          "name": "role",
          "type": "uint256"
        }
      ],
      "name": "isValidSigner",
      "outputs": [
        {
          "internalType": "bool",
          "name": "",
          "type": "bool"
        }
      ],
      "stateMutability": "view",
      "type": "function"
    },
    {
      "inputs": [
        {
          "internalType": "uint256",
          "name": "amount",
          "type": "uint256"
        }
      ],
      "name": "makeDeposit",
      "outputs": [],
      "stateMutability": "nonpayable",
      "type": "function"
    },
    {
      "inputs": [],
      "name": "makeOwnerAdmin",
      "outputs": [],
      "stateMutability": "nonpayable",
      "type": "function"
    },
    {
      "inputs": [],
      "name": "owner",
      "outputs": [
        {
          "internalType": "address",
          "name": "",
          "type": "address"
        }
      ],
      "stateMutability": "view",
      "type": "function"
    },
    {
      "inputs": [],
      "name": "paymentToken",
      "outputs": [
        {
          "internalType": "contract IERC20",
          "name": "",
          "type": "address"
        }
      ],
      "stateMutability": "view",
      "type": "function"
    },
    {
      "inputs": [
        {
          "internalType": "address",
          "name": "user",
          "type": "address"
        }
      ],
      "name": "removeAdmin",
      "outputs": [],
      "stateMutability": "nonpayable",
      "type": "function"
    },
    {
      "inputs": [
        {
          "internalType": "address",
          "name": "signer",
          "type": "address"
        },
        {
          "internalType": "uint256",
          "name": "role",
          "type": "uint256"
        }
      ],
      "name": "removeRole",
      "outputs": [],
      "stateMutability": "nonpayable",
      "type": "function"
    },
    {
      "inputs": [
        {
          "internalType": "address",
          "name": "user",
          "type": "address"
        }
      ],
      "name": "removeTrader",
      "outputs": [],
      "stateMutability": "nonpayable",
      "type": "function"
    },
    {
      "inputs": [
        {
          "internalType": "address",
          "name": "user",
          "type": "address"
        }
      ],
      "name": "removeTreasurer",
      "outputs": [],
      "stateMutability": "nonpayable",
      "type": "function"
    },
    {
      "inputs": [
        {
          "internalType": "address",
          "name": "_bfx",
          "type": "address"
        }
      ],
      "name": "setBfx",
      "outputs": [],
      "stateMutability": "nonpayable",
      "type": "function"
    },
    {
      "inputs": [
        {
          "internalType": "address",
          "name": "_paymentToken",
          "type": "address"
        }
      ],
      "name": "setPaymentToken",
      "outputs": [],
      "stateMutability": "nonpayable",
      "type": "function"
    },
    {
      "inputs": [
        {
          "internalType": "address",
          "name": "",
          "type": "address"
        },
        {
          "internalType": "uint256",
          "name": "",
          "type": "uint256"
        }
      ],
      "name": "signers",
      "outputs": [
        {
          "internalType": "bool",
          "name": "",
          "type": "bool"
        }
      ],
      "stateMutability": "view",
      "type": "function"
    },
    {
      "inputs": [
        {
          "internalType": "uint256",
          "name": "amount",
          "type": "uint256"
        }
      ],
      "name": "stake",
      "outputs": [],
      "stateMutability": "nonpayable",
      "type": "function"
    },
    {
      "inputs": [
        {
          "internalType": "uint256",
          "name": "amount",
          "type": "uint256"
        },
        {
          "internalType": "address",
          "name": "to",
          "type": "address"
        }
      ],
      "name": "withdrawTokensTo",
      "outputs": [],
      "stateMutability": "nonpayable",
      "type": "function"
    }
  ],
  "bytecode": {
    "object": "0x60a0604052600160025534801561001557600080fd5b506040516200143438038062001434833981016040819052610036916100c5565b6001600160a01b0392831660808190526000908152600360209081526040808320838052808352818420805460ff199081166001908117909255600286529190935290832080549091168217905581549385166001600160a01b0319948516179091558054919093169116179055610108565b80516001600160a01b03811681146100c057600080fd5b919050565b6000806000606084860312156100da57600080fd5b6100e3846100a9565b92506100f1602085016100a9565b91506100ff604085016100a9565b90509250925092565b6080516112ed62000147600039600081816103b9015281816105600152818161066701528181610ad301528181610d230152610dc101526112ed6000f3fe608060405234801561001057600080fd5b50600436106101a35760003560e01c806375b238fc116100ee578063ab56a29c11610097578063cc0d50e611610071578063cc0d50e61461042f578063e1326b3414610474578063f0a3a97c146104a2578063f0a56fc8146104aa57600080fd5b8063ab56a29c14610401578063b743e72214610414578063c19ef54e1461042757600080fd5b80638da5cb5b116100c85780638da5cb5b146103b457806396f0248a146103db578063a694fc3a146103ee57600080fd5b806375b238fc1461037857806379db5f671461038e5780637fde1c8a146103a157600080fd5b80634039ad0d116101505780635fdd14cc1161012a5780635fdd14cc146103325780636a326ab114610352578063704802751461036557600080fd5b80634039ad0d1461029457806353635d76146102d95780635d428e081461031f57600080fd5b80631785f53c116101815780631785f53c146101e357806324d7806c146101f65780633013ce291461024f57600080fd5b8063059a500c146101a85780630795fcd7146101bd5780630a1f194f146101d0575b600080fd5b6101bb6101b6366004611154565b6104b2565b005b6101bb6101cb366004611196565b610548565b6101bb6101de366004611196565b61062e565b6101bb6101f1366004611196565b610639565b61023a610204366004611196565b73ffffffffffffffffffffffffffffffffffffffff16600090815260036020908152604080832083805290915290205460ff1690565b60405190151581526020015b60405180910390f35b60015461026f9073ffffffffffffffffffffffffffffffffffffffff1681565b60405173ffffffffffffffffffffffffffffffffffffffff9091168152602001610246565b61023a6102a2366004611196565b73ffffffffffffffffffffffffffffffffffffffff1660009081526003602090815260408083206001845290915290205460ff1690565b61023a6102e73660046111b1565b73ffffffffffffffffffffffffffffffffffffffff919091166000908152600360209081526040808320938352929052205460ff1690565b6101bb61032d366004611196565b610644565b60005461026f9073ffffffffffffffffffffffffffffffffffffffff1681565b6101bb610360366004611196565b61064f565b6101bb610373366004611196565b610735565b610380600081565b604051908152602001610246565b6101bb61039c3660046111b1565b610740565b6101bb6103af3660046111b1565b610846565b61026f7f000000000000000000000000000000000000000000000000000000000000000081565b6101bb6103e9366004611196565b61094f565b6101bb6103fc366004611154565b61095a565b6101bb61040f366004611196565b610ab0565b6101bb6104223660046111db565b610abb565b6101bb610d0b565b61023a61043d366004611196565b73ffffffffffffffffffffffffffffffffffffffff1660009081526003602090815260408083206002845290915290205460ff1690565b61023a6104823660046111b1565b600360209081526000928352604080842090915290825290205460ff1681565b610380600281565b610380600181565b3360009081526003602090815260408083206002845290915290205460ff1661053c576040517f08c379a000000000000000000000000000000000000000000000000000000000815260206004820152600f60248201527f4e4f545f415f545245415355524552000000000000000000000000000000000060448201526064015b60405180910390fd5b61054581610e25565b50565b3373ffffffffffffffffffffffffffffffffffffffff7f000000000000000000000000000000000000000000000000000000000000000016146105e7576040517f08c379a000000000000000000000000000000000000000000000000000000000815260206004820152600a60248201527f4f4e4c595f4f574e4552000000000000000000000000000000000000000000006044820152606401610533565b600080547fffffffffffffffffffffffff00000000000000000000000000000000000000001673ffffffffffffffffffffffffffffffffffffffff92909216919091179055565b610545816001610740565b610545816000610740565b610545816001610846565b3373ffffffffffffffffffffffffffffffffffffffff7f000000000000000000000000000000000000000000000000000000000000000016146106ee576040517f08c379a000000000000000000000000000000000000000000000000000000000815260206004820152600a60248201527f4f4e4c595f4f574e4552000000000000000000000000000000000000000000006044820152606401610533565b600180547fffffffffffffffffffffffff00000000000000000000000000000000000000001673ffffffffffffffffffffffffffffffffffffffff92909216919091179055565b610545816000610846565b33600090815260036020908152604080832083805290915290205460ff166107c4576040517f08c379a000000000000000000000000000000000000000000000000000000000815260206004820152600c60248201527f4e4f545f414e5f41444d494e00000000000000000000000000000000000000006044820152606401610533565b73ffffffffffffffffffffffffffffffffffffffff8216600081815260036020908152604080832085845290915280822080547fffffffffffffffffffffffffffffffffffffffffffffffffffffffffffffff00169055518392917fab7e7fe900d8aa7f39ca66aa4d676da91fc14d21ed3b3988e71a252fcd89682691a35050565b33600090815260036020908152604080832083805290915290205460ff166108ca576040517f08c379a000000000000000000000000000000000000000000000000000000000815260206004820152600c60248201527f4e4f545f414e5f41444d494e00000000000000000000000000000000000000006044820152606401610533565b73ffffffffffffffffffffffffffffffffffffffff8216600081815260036020908152604080832085845290915280822080547fffffffffffffffffffffffffffffffffffffffffffffffffffffffffffffff00166001179055518392917fa756644c402343802d987ef5daa342f9059278874f5e8f3e420ac9dce3d038d991a35050565b610545816002610740565b600081116109c4576040517f08c379a000000000000000000000000000000000000000000000000000000000815260206004820152600c60248201527f57524f4e475f414d4f554e5400000000000000000000000000000000000000006044820152606401610533565b60006109ce610f4c565b90503373ffffffffffffffffffffffffffffffffffffffff16817f02567b2553aeb44e4ddd5d68462774dc3de158cb0f2c2da1740e729b22086aff84604051610a1991815260200190565b60405180910390a3600054610a4690339073ffffffffffffffffffffffffffffffffffffffff1684610f6a565b610aac576040517f08c379a000000000000000000000000000000000000000000000000000000000815260206004820152600f60248201527f5452414e534645525f4641494c454400000000000000000000000000000000006044820152606401610533565b5050565b610545816002610846565b3373ffffffffffffffffffffffffffffffffffffffff7f00000000000000000000000000000000000000000000000000000000000000001614610b5a576040517f08c379a000000000000000000000000000000000000000000000000000000000815260206004820152600a60248201527f4f4e4c595f4f574e4552000000000000000000000000000000000000000000006044820152606401610533565b60008211610bc4576040517f08c379a000000000000000000000000000000000000000000000000000000000815260206004820152600c60248201527f57524f4e475f414d4f554e5400000000000000000000000000000000000000006044820152606401610533565b73ffffffffffffffffffffffffffffffffffffffff8116610c41576040517f08c379a000000000000000000000000000000000000000000000000000000000815260206004820152600c60248201527f5a45524f5f4144445245535300000000000000000000000000000000000000006044820152606401610533565b8073ffffffffffffffffffffffffffffffffffffffff167f47096d7b247e809edf18e9bccfcb92f2af426ce8e6b40c923e65cb1b8394cef783604051610c8991815260200190565b60405180910390a26000610c9d828461104f565b905080610d06576040517f08c379a000000000000000000000000000000000000000000000000000000000815260206004820152600f60248201527f5452414e534645525f4641494c454400000000000000000000000000000000006044820152606401610533565b505050565b3373ffffffffffffffffffffffffffffffffffffffff7f00000000000000000000000000000000000000000000000000000000000000001614610daa576040517f08c379a000000000000000000000000000000000000000000000000000000000815260206004820152600a60248201527f4f4e4c595f4f574e4552000000000000000000000000000000000000000000006044820152606401610533565b73ffffffffffffffffffffffffffffffffffffffff7f0000000000000000000000000000000000000000000000000000000000000000166000908152600360209081526040808320838052909152902080547fffffffffffffffffffffffffffffffffffffffffffffffffffffffffffffff00166001179055565b6001546000546040517f095ea7b300000000000000000000000000000000000000000000000000000000815273ffffffffffffffffffffffffffffffffffffffff91821660048201526024810184905291169063095ea7b3906044016020604051808303816000875af1158015610ea0573d6000803e3d6000fd5b505050506040513d601f19601f82011682018060405250810190610ec49190611207565b506000546040517fb6b55f250000000000000000000000000000000000000000000000000000000081526004810183905273ffffffffffffffffffffffffffffffffffffffff9091169063b6b55f2590602401600060405180830381600087803b158015610f3157600080fd5b505af1158015610f45573d6000803e3d6000fd5b5050505050565b60028054600091819083610f5f83611229565b909155509092915050565b60405173ffffffffffffffffffffffffffffffffffffffff80851660248301528316604482015260648101829052600090611047907f23b872dd00000000000000000000000000000000000000000000000000000000906084015b604080517fffffffffffffffffffffffffffffffffffffffffffffffffffffffffffffffe08184030181529190526020810180517bffffffffffffffffffffffffffffffffffffffffffffffffffffffff167fffffffff00000000000000000000000000000000000000000000000000000000909316929092179091526110ad565b949350505050565b60405173ffffffffffffffffffffffffffffffffffffffff83166024820152604481018290526000906110a6907fa9059cbb0000000000000000000000000000000000000000000000000000000090606401610fc5565b9392505050565b6001546040516000918291829173ffffffffffffffffffffffffffffffffffffffff16906110dc908690611288565b6000604051808303816000865af19150503d8060008114611119576040519150601f19603f3d011682016040523d82523d6000602084013e61111e565b606091505b5091509150818015611131575060008151115b1561114d578080602001905181019061114a9190611207565b91505b5092915050565b60006020828403121561116657600080fd5b5035919050565b803573ffffffffffffffffffffffffffffffffffffffff8116811461119157600080fd5b919050565b6000602082840312156111a857600080fd5b6110a68261116d565b600080604083850312156111c457600080fd5b6111cd8361116d565b946020939093013593505050565b600080604083850312156111ee57600080fd5b823591506111fe6020840161116d565b90509250929050565b60006020828403121561121957600080fd5b815180151581146110a657600080fd5b60007fffffffffffffffffffffffffffffffffffffffffffffffffffffffffffffffff8203611281577f4e487b7100000000000000000000000000000000000000000000000000000000600052601160045260246000fd5b5060010190565b6000825160005b818110156112a9576020818601810151858301520161128f565b50600092019182525091905056fea264697066735822122033462aae17f77682b54cbeb598fc19c1095ee8263186b483bab4703bfafd04bd64736f6c63430008150033",
    "linkReferences": {}
  },
  "methodIdentifiers": {
    "ADMIN_ROLE()": "75b238fc",
    "TRADER_ROLE()": "f0a56fc8",
    "TREASURER_ROLE()": "f0a3a97c",
    "addAdmin(address)": "70480275",
    "addRole(address,uint256)": "7fde1c8a",
    "addTrader(address)": "5d428e08",
    "addTreasurer(address)": "ab56a29c",
    "bfx()": "5fdd14cc",
    "isAdmin(address)": "24d7806c",
    "isTrader(address)": "4039ad0d",
    "isTreasurer(address)": "cc0d50e6",
    "isValidSigner(address,uint256)": "53635d76",
    "makeDeposit(uint256)": "059a500c",
    "makeOwnerAdmin()": "c19ef54e",
    "owner()": "8da5cb5b",
    "paymentToken()": "3013ce29",
    "removeAdmin(address)": "1785f53c",
    "removeRole(address,uint256)": "79db5f67",
    "removeTrader(address)": "0a1f194f",
    "removeTreasurer(address)": "96f0248a",
    "setBfx(address)": "0795fcd7",
    "setPaymentToken(address)": "6a326ab1",
    "signers(address,uint256)": "e1326b34",
    "stake(uint256)": "a694fc3a",
    "withdrawTokensTo(uint256,address)": "b743e722"
  },
  "id": 26
}