{
  "abi": [
    {
      "inputs": [
        {
          "internalType": "string",
          "name": "domainName",
          "type": "string"
        },
        {
          "internalType": "string",
          "name": "version",
          "type": "string"
        },
        {
          "internalType": "address",
          "name": "signer",
          "type": "address"
        }
      ],
      "stateMutability": "nonpayable",
      "type": "constructor"
    },
    {
      "inputs": [],
      "name": "external_signer",
      "outputs": [
        {
          "internalType": "address",
          "name": "",
          "type": "address"
        }
      ],
      "stateMutability": "view",
      "type": "function"
    }
  ],
  "bytecode": {
    "object": "0x61014060405234801561001157600080fd5b50604051610348380380610348833981016040819052610030916101de565b825160208085019190912083518483012060e08290526101008190524660a0818152604080517f8b73c3c69bb8fe3d512ecc4cf759cc79239f7b179b0ffacaa9a75d522b39400f818801819052818301969096526060810194909452608080850193909352308483018190528151808603909301835260c09485019091528151919095012090529190915261012052600080546001600160a01b0319166001600160a01b03831690811790915561011b5760405162461bcd60e51b815260206004820152600b60248201526a2d22a927afa9a4a3a722a960a91b604482015260640160405180910390fd5b505050610263565b634e487b7160e01b600052604160045260246000fd5b600082601f83011261014a57600080fd5b81516001600160401b038082111561016457610164610123565b604051601f8301601f19908116603f0116810190828211818310171561018c5761018c610123565b816040528381526020925086838588010111156101a857600080fd5b600091505b838210156101ca57858201830151818301840152908201906101ad565b600093810190920192909252949350505050565b6000806000606084860312156101f357600080fd5b83516001600160401b038082111561020a57600080fd5b61021687838801610139565b9450602086015191508082111561022c57600080fd5b5061023986828701610139565b604086015190935090506001600160a01b038116811461025857600080fd5b809150509250925092565b60805160a05160c05160e051610100516101205160aa61029e60003960005050600050506000505060005050600050506000505060aa6000f3fe6080604052348015600f57600080fd5b506004361060275760003560e01c806208cecb14602c575b600080fd5b600054604b9073ffffffffffffffffffffffffffffffffffffffff1681565b60405173ffffffffffffffffffffffffffffffffffffffff909116815260200160405180910390f3fea2646970667358221220c4f4383072286b2946b7451332b181e53e3896006f3639cb53d5b5e14ca8815c64736f6c63430008150033",
    "linkReferences": {}
  },
  "methodIdentifiers": {
    "external_signer()": "0008cecb"
  },
  "id": 27
}